:100000000C945E000C94110C0C94380C0C9486002B
:100010000C9486000C9486000C9486000C94860048
:100020000C9486000C9486000C9486000C94860038
:100030000C9486000C9486000C9486000C94860028
:100040000C94160B0C9486000C942D0D0C945A0DE8
:100050000C9486000C9486000C9486000C94860008
:100060000C9486000C948600000000080002010039
:100070000003040700000000000000000102040863
:100080001020408001020408102001020408102002
:10009000040404040404040402020202020203032E
:1000A0000303030300000000250028002B000000CC
:1000B0000000240027002A000B0C800D11241FBE15
:1000C000CFEFD8E0DEBFCDBF12E0A0E0B1E0EEE0C0
:1000D000FEE102C005900D92A63AB107D9F725E0DE
:1000E000A6EAB2E001C01D92AE34B207E1F710E01B
:1000F000CEE5D0E004C02197FE010E94FF0ECC3572
:10010000D107C9F70E94FC0B0C94DA0E0C94000086
:10011000E2E10E942D010895E9E00E942D01089579
:10012000EAE00E942D010895E1E00E942D0108956A
:10013000E3E00E942D010895E7E00E942D0108955B
:10014000E5E00E942D010895E0E00E942D01089550
:10015000E2E00E942D010895E4E00E942D0108953F
:10016000ECE00E942D010895E8E00E942D01089521
:10017000EEE00E942D010895E4E10E942D01089512
:10018000E0E10E942D010895E7E10E942D0108950C
:10019000E6E00E942D010895EBE00E942D010895F4
:1001A000EDE00E942D010895EFE00E942D010895D9
:1001B000E1E10E942D010895E3E10E942D010895DF
:1001C000E5E10E942D010895E6E10E942D010895C8
:1001D00021968A929A92AA92BA92CA92DA92EA9254
:1001E000FA920A931A932197E0916F01F0917001AE
:1001F0000080F181E02DC083D1830895C091710109
:10020000D0917201E881F981C081D1812196199143
:100210000991F990E990D990C990B990A9909990D5
:100220008990219708952F903F90E7E6F1E0CDB7B0
:10023000DEB7EDBFFEBF3F922F9208952F903F9003
:10024000CDBFDEBF3F922F920895E0E80E942D01BE
:100250000895E0E40E942D0108952F923F924F925D
:100260005F926F927F922FB62F92CF93DF937E2E65
:10027000F894E0910001EF5FE0930001E13011F4A8
:100280000E941301E0E0E0937F01E72DE07849F060
:100290000E949605F0918001F17071F00E9419049E
:1002A0000BC0E72DEC3140F4EE0FF0E0EC59FD4FC0
:1002B0000190F081E02D0995F0917F01EF2FE17021
:1002C00059F0F27011F00E94E8008F938F2F0E9476
:1002D00063038F910E94FE00209100012150209322
:1002E0000001222311F40E941E01DF91CF912F9073
:1002F0002FBE7F906F905F904F903F902F9008950A
:10030000FC014081FB013081842F8F7090E0B0E0D0
:10031000A0E0B695A7959795879585549D4FFC01CC
:100320008081242F281B21704E70242B832F8F70E7
:1003300090E0B0E0A0E0B695A79597958795855495
:100340009D4FFC018081932F981B91703E70932BE1
:1003500041E050E0291710F050E040E0CA01089554
:10036000AF92BF92CF92DF92EF92FF920F931F93C3
:10037000CF93DF938C01CA01DB016A017B01F69404
:10038000E794D794C79482309105A105B10580F018
:10039000880F991FE801C80FD91F5601AA0CBB1C72
:1003A000A00EB11EBE01C5010E948001892B59F427
:1003B000DF91CF911F910F91FF90EF90DF90CF9041
:1003C000BF90AF90089598818981F5012081318196
:1003D0003983288390838183D701C601D0CF4F9280
:1003E0005F926F927F928F929F92AF92BF92CF92C5
:1003F000DF92EF92FF92CF93DF9300D000D000D036
:10040000CDB7DEB78D839E836A017B01AD81BE814E
:100410008C91282F30E050E040E029833A834B83D1
:100420005C8346015701880C991CAA1CBB1C2981BE
:100430003A814B815C81281539054A055B05A8F492
:1004400026960FB6F894DEBF0FBECDBFDF91CF91D9
:10045000FF90EF90DF90CF90BF90AF909F908F90E4
:100460007F906F905F904F900895240135013FEF8A
:10047000431A530A630A730A89819A81AB81BC814A
:1004800084159505A605B70590F0B201660F771F94
:10049000AD81BE816A0F7B1FC401880F991F8A0F2F
:1004A0009B1F0E948001892B11F0530142013401EE
:1004B000660C771CED81FE816E0E7F1ECC0CDD1C60
:1004C000CE0EDF1EB301C6010E948001892B09F404
:1004D000B7CFD6019C9111968C911197F301208191
:1004E00031812D933C93908381837501640199CF71
:1004F000E2E7F3E040814F5F408350E070E060E06E
:10050000E82FEE0FFF0BE75EFD4F0190F081E02D2D
:10051000238530E0F901E554FD4F9081915090839F
:10052000FA01EE0FFF1FEE58FC4F220F331F9170A0
:10053000922B9083818382E793E00C94B001E2E7F1
:10054000F3E040814F5F408350E070E060E0FA01EB
:10055000EE0FFF1FEE58FC4FA82FAA0FBB0BAF5E8C
:10056000BD4F0D90BC91A02D13969C9190838183DB
:1005700082E793E00C94B001CF93DF93E2E7F3E0DE
:1005800080819FEF980F9083D281C38190E0880F84
:10059000991F8E589C4FDC018D919C91938382838F
:1005A00041E050E060E070E0CF010E94EF018D2F4C
:1005B0009C2FDF91CF9108958091A602811115C0E3
:1005C00040917701509178016091790170917A01A1
:1005D0004F3F9FEF59076907790751F043305105A5
:1005E0006105710524F481E0089584E0089582E0B6
:1005F0000895CF93DF93880F990BFC01E75EFD4FC1
:100600000190F081E02D0084F185E02D3097E1F03C
:100610002281211119C021E022838F5E9D4FEC01C0
:10062000A881B98113968C9113978183208130E042
:10063000F901E554FD4F808181508083220F331FE3
:100640008170822B13968C93DF91CF910895CF9375
:10065000DF93880F990BFC01E75EFD4F0190F0815D
:10066000E02D0084F185E02D309761F0228121306A
:1006700049F412828F5E9D4FEC01A881B98181817E
:1006800013968C93DF91CF91089580917B01909187
:100690007C01A0917D01B0917E0140917701509144
:1006A00078016091790170917A01481759076A07BA
:1006B0007B0741F0E0917501F091760121E0248300
:1006C0000C949F020895CF93DF93D0E0C0E088237D
:1006D00089F0C0916F01D0917001E0917301F091A8
:1006E00074018481833031F081E0848380917701CB
:1006F0000E949F02E0917501F0917601F0937401E0
:10070000E093730180917101909172019093700157
:1007100080936F0180917B0130917C0120917D015C
:1007200090917E0180937701309378012093790135
:1007300090937A0192E094830E94F902CE01DF91B6
:10074000CF910895809177010E942703E091730172
:10075000F09174018281882319F085E084830895E3
:1007600014820895CF93DF93282F220F330BF901C2
:10077000EF5EFD4FC081D1819A81275E3D4FD90147
:10078000ED91FC912485921780F4911105C095E0BC
:100790009C8391E0909380010E9478028A818F5F10
:1007A0008A8380E0DF91CF91089584E0FBCFE82F2A
:1007B000EE0FFF0BEF5EFD4F0190F081E02D1182F7
:1007C00010820C94AA0B1F93CF93DF930E94BC025C
:1007D000182F892F492F092E000C550B660B770B0C
:1007E00040937B0150937C0160937D0170937E0167
:1007F000292F220F330BF901EF5EFD4FC081D1810C
:10080000D0937601C0937501275E3D4FF901208199
:10081000318130937201209371019C81953019F4DC
:100820000E94D7031B8310928001DF91CF911F910B
:100830000895E0917B01F0917C01EE0FFF1FEF5EC8
:10084000FD4F0190F081E02D909174038381891711
:1008500040F40E9445030E94E30383E080937F01FC
:10086000089580E0FBCF81E080937F010C94E30347
:10087000EF92FF920F931F93CF93DF93C1E001C0DC
:10088000CC0F8A95EAF720911F02309120028091C7
:100890001702909118021092720310927001109238
:1008A0006F013093720120937101109274011092C4
:1008B000730190937601809375018FEF9FEFDC01B8
:1008C0008093770190937801A0937901B0937A0196
:1008D00080937B0190937C01A0937D01B0937E0176
:1008E00010927F011092800183E00E94B20320E603
:1008F000E22E22E0F22E10E0F70181917F018C239D
:1009000019F0812F0E94B2031F5F1330A9F79DE5F4
:10091000E92E92E0F92E10E000E0D1E0F70181919C
:100920007F018C2359F0F801EE0FFF1FE051FE4FBD
:1009300080819181FC01D6870E94D4040F5F1F4FF4
:100940000330110559F7DF91CF911F910F91FF905F
:10095000EF9008950E94770681110E949706E0911A
:100960007301F091740180819181892B21F0809134
:1009700077010E9451080C94BC070E9477068111F0
:100980000E949706E0917301F0917401808191813A
:10099000892B21F0809177010E9451080C94A707C0
:1009A00081E08093A7020895CF92DF92EF92FF92A9
:1009B0000F931F93CF93DF93FC01A081B1810D9022
:1009C000BC91A02D54968D919C915597009709F458
:1009D00045C0428553856485758530E020E0EC0193
:1009E000CA84DB84EC84FD844C155D056E057F05AF
:1009F00008F049C08C0113830283358324830115D9
:100A0000110519F0E801FD83EC832115310509F486
:100A100044C0E901FB83EA835696CD91DC91579758
:100A20000A851B852C853D855096CD90DD90ED90F7
:100A3000FC9053970C151D052E053F0598F5C4161F
:100A4000D506E606F70628F0401751076207730738
:100A500088F45796FC93EE9356970CC05596FC93EA
:100A6000EE9354975796FC93EE9356971582148203
:100A700013821282DF91CF911F910F91FF90EF901F
:100A8000DF90CF900895EC010A811B819C01011534
:100A9000110509F4B0CFC801A2CF5596FC93EE938F
:100AA0005497BACFC416D506E606F70618F7CCCF8A
:100AB000CF93DF93FC01A081B1810D90BC91A02D5B
:100AC000C281D38154968D919C9155978E179F0723
:100AD00021F45596DC93CE93549756968D919C9124
:100AE00057978E179F0721F45796DC93CE9356970E
:100AF000209721F0848195819D838C830480F581EA
:100B0000E02D309711F0D383C28356968D919C913E
:100B10005797892B41F454968D919C9155975796F0
:100B20009C938E935697DF91CF910895EF92FF9209
:100B30000F931F93CF93DF93EC018091A70288233B
:100B400009F4A8C08C859D85AE85BF850196A11D41
:100B5000B11D8C879D87AE87BF87488159816A8187
:100B60007B8184179507A607B70709F093C088898A
:100B70009989AA89BB890196A11DB11D4C815D810E
:100B80006E817F81481759076A077B0718F480E058
:100B900090E0DC01888B998BAA8BBB8B1C861D8611
:100BA0001E861F860E891F890115110509F472C062
:100BB000F8014285538564857585481759076A078A
:100BC0007B0709F067C09F010280F381E02D309719
:100BD00049F0428553856485758584179507A60776
:100BE000B70789F3D80114968D919C91009729F04D
:100BF000DC011396FC93EE931297309711F09583D6
:100C000084838C899D890817190711F4FD8BEC8B5F
:100C1000309709F446C0FF8BEE8BF90113821282E4
:100C20007801D80112960D911C911397ED91FC91CA
:100C30000280F381E02DC7010995F7018681978134
:100C4000A085B1850097A105B10581F14285538545
:100C500064857585840F951FA61FB71F4C815D8124
:100C60006E817F81481759076A077B0740F44095DA
:100C7000509560957095840F951FA61FB71FF701BB
:100C800082879387A487B587C7010E94D404011582
:100C9000110531F6DF91CF911F910F91FF90EF90E9
:100CA00008958C899D899F8B8E8BB7CF1686EFCF49
:100CB000FC0182810C94B2030E9477068091680146
:100CC0000895809368010E9438040E94D0040C9417
:100CD00033040C94A90BCF93C82F0E94DC0281111E
:100CE00002C00E94F20B8C2FCF910C948C002091AB
:100CF000B4022130D1F04091AC025091AD0260912C
:100D0000AE027091AF028091B0029091B102A091B9
:100D1000B202B091B302842B952BA62BB72B21E006
:100D2000892B8A2B8B2B09F420E0822F08951092B7
:100D3000B4021092B0021092B1021092B20210925C
:100D4000B3021092AC021092AD021092AE02109259
:100D5000AF028091A8029091A902A091AA02B0913D
:100D6000AB028093B5029093B602A093B702B09302
:100D7000B80208950E94F50B8091B5029091B602D9
:100D8000A091B702B091B8020196A11DB11D809348
:100D9000B5029093B602A093B702B093B8028091C7
:100DA000B0029091B102A091B202B091B30201964B
:100DB000A11DB11D8093B0029093B102A093B20225
:100DC000B093B30208958091B0029091B102A091C6
:100DD000B202B091B3020097A105B10569F140914B
:100DE000B5025091B6026091B7027091B8024150BD
:100DF0005109610971094093B5025093B60260939D
:100E0000B7027093B8020197A109B1098093B002AB
:100E10009093B102A093B202B093B3028091B50255
:100E20009091B602A091B702B091B802892B8A2B9B
:100E30008B2B11F40C94F30B08958091B0029091D8
:100E4000B102A091B202B091B3024091AC025091B4
:100E5000AD026091AE027091AF02842B952BA62B50
:100E6000B72B892B8A2B8B2B29F40E94F50B81E061
:100E70008093B40208958091B402882321F01092E7
:100E8000B4020C94F30B08950E94F90B8091B50203
:100E90009091B602A091B702B091B8020196A11D3F
:100EA000B11D8093B5029093B602A093B702B093A0
:100EB000B8028091AC029091AD02A091AE02B091C7
:100EC000AF020196A11DB11D8093AC029093AD02BB
:100ED000A093AE02B093AF0208958091AC029091BE
:100EE000AD02A091AE02B091AF020097A105B1058D
:100EF00069F14091B5025091B6026091B7027091CC
:100F0000B80241505109610971094093B5025093EB
:100F1000B6026093B7027093B8020197A109B109B4
:100F20008093AC029093AD02A093AE02B093AF0257
:100F30008091B5029091B602A091B702B091B8022B
:100F4000892B8A2B8B2B11F40C94F70B08950E949C
:100F50007706811183E10895CF93C82F0E94770609
:100F60008C2F0E94B203C82F8091800181110E94B2
:100F700019048C2FCF910895CF930E947706C82F24
:100F80008111C3E1E0917301F0917401828181507C
:100F900082830E94A20381E080937F010E94E30389
:100FA0008C2FCF910895CF93C82F0E947706E091A0
:100FB0007301F09174018281815082838C2F0E9491
:100FC000B203C82F81110AC00E94A20381E080935E
:100FD0007F010E94E3038C2FCF910895E09173016C
:100FE000F091740182818F5F8283F5CFCF930E944D
:100FF0007706C82F8111C3E1809177010E942703F2
:101000000E9419048091770190917801A091790153
:10101000B0917A0140917B0150917C0160917D01FA
:1010200070917E0184179507A607B70711F40E94F7
:10103000F9028C2FCF910895CF93DF93EC010E949A
:101040007706811183E14091770150917801609199
:10105000790170917A01433051056105710524F4DD
:101060004883DF91CF9108959091DE019883F9CF65
:101070000F931F93CF93C82F8B010E947706811186
:1010800083E1EC2FEE0FFF0BEF5EFD4F0190F0813F
:10109000E02D94819370F8019083CF911F910F916F
:1010A0000895E82FEE0FFF0BEF5EFD4FA081B18199
:1010B000ED91FC911197309789F01D921C928091CF
:1010C000DE01DF010380F481E02D12968C931297EC
:1010D00014961C921E921397309799F70895CF9308
:1010E000C82F0E947706811183E1EC2FF0E0EE0F0C
:1010F000FF1FE75AFD4F0190F081E02D909177019D
:101100009283A0917301B09174012D913C9111973C
:10111000348323831196FC93EE9313969C9113973B
:10112000918320819695921768F430E0F901E55497
:10113000FD4F908191509083220F331F9170922B1D
:1011400013969C93CF910895CF93DF93C82F0E945D
:101150007706D82F8111D3E1EC2FF0E0EE0FFF1FBF
:10116000E75AFD4F0190F081E02DA0917301B091FD
:101170007401818113968C931397838194818D934D
:101180009C93148213828091DE0182830E94190451
:101190008D2FDF91CF910895DC01ED91FC91848139
:1011A0009581DC01ED91FC9109941F93CF93DF931E
:1011B000182FEB010E947706811183E1E12FF0E007
:1011C000EE0FFF1FE051FE4F0190F081E02D0190E6
:1011D000F081E02D0190F081E02D4081518162810C
:1011E00073814C835D836E837F83448155816681E7
:1011F0007781488359836A837B83408551856285E3
:101200007385488759876A877B87DF91CF911F91C4
:1012100008958F929F92AF92BF92CF92DF92EF92FA
:10122000FF920F931F93CF93C82F8B010E947706D5
:10123000811183E1EC2FF0E0EE0FFF1FE051FE4F34
:101240000190F081E02D9685913081F5428553859E
:10125000648575850190F081E02D0190F081E02D8D
:10126000C088D188E288F3884C155D056E057F053E
:1012700040F484809580A680B780480D591D6A1D72
:101280007B1D4C195D096E097F09F801408351836C
:1012900062837383CF911F910F91FF90EF90DF9046
:1012A000CF90BF90AF909F908F90089585E0F2CF40
:1012B000AF92BF92CF92DF92EF92FF920F931F9364
:1012C000CF93DF93A82E6A017B01B22ED32F0E9409
:1012D0007706C82F8111C3E1EA2DF0E0EE0FFF1F62
:1012E000E051FE4F0190F081E02D868581113CC0D8
:1012F000A081B1810D90BC91A02D50964D915D9132
:101300006D917C915397C40ED51EE61EF71E149660
:101310008D919D910D90BC91A02D8C159D05AE05D4
:10132000BF0548F4C81AD90AEA0AFB0A81E0C81ABC
:10133000D108E108F108C286D386E486F5860683E3
:101340001783B086D18781E08687CF010E94D404BD
:101350008C2FDF91CF911F910F91FF90EF90DF9035
:10136000CF90BF90AF900895C7E0F2CFAF92BF92F9
:10137000CF92DF92EF92FF920F931F93CF93DF9361
:10138000C82F5A016B0179010E947706D82F81116D
:10139000D3E1EC2FF0E0EE0FFF1FE051FE4F019084
:1013A000F081E02D8685811119C0A286B386C4869E
:1013B000D58606831783E086F18681E08687CF0194
:1013C0000E94D4048D2FDF91CF911F910F91FF9038
:1013D000EF90DF90CF90BF90AF900895D7E0F2CF1D
:1013E0000F931F93CF93DF93C82F0E947706D82FB8
:1013F0008111D3E1EC2FF0E0EE0FFF1FE051FE4F23
:1014000000811181F8018685813059F4C8010E945C
:101410005805F80116868D2FDF91CF911F910F91FE
:101420000895D5E0F8CF26E040E052EC61E070E0AE
:101430008FEC92E00E94780E61E08DE00E94AC0A91
:10144000809163020C946B0661E08DE00E94E80AD3
:101450006FED71E08FEC92E00E94A30C6091B902F5
:101460007091BA024AE050E08FEC92E00E94190DB0
:101470008091B9029091BA0220916D0130916E0174
:10148000820F931F9093BA028093B9020C94B40018
:1014900060E08DE00E94E80A66EE71E08FEC92E079
:1014A0000E94A30C6091690170916A014AE050E0CA
:1014B0008FEC92E00E94190D8091690190916A0170
:1014C00020916B0130916C01820F931F90936A0100
:1014D000809369010C94B40080915C020E94E40046
:1014E00080915B020E94E40060E08DE00E94E80AC7
:1014F00080E00E9490000C94B4008DEB91E00C947D
:1015000025010895843099F038F48230C1F0833099
:1015100041F0813081F008958730A1F08830C1F02A
:101520000895809180008F77809380000895809146
:1015300080008F7DF9CF84B58F7784BD089584B501
:101540008F7DFBCF8091B0008F778093B00008959E
:101550008091B0008F7DF9CFCF93DF9390E0FC01B5
:10156000E458FF4F249180579F4FFC0184918823BA
:10157000C9F090E0880F991FFC01E255FF4FA5913B
:10158000B491FC01EC55FF4FC591D49161110DC090
:101590009FB7F8948C91209582238C93888128237F
:1015A00028839FBFDF91CF910895623051F49FB798
:1015B000F8943C91822F809583238C93E8812E2B85
:1015C000EFCF8FB7F894EC912E2B2C938FBFEACFEF
:1015D0001F93CF93DF93162F282F30E0F901E8599E
:1015E000FF4F8491F901E458FF4FD491F901E0577E
:1015F000FF4FC491CC23A1F081110E94820AEC2FED
:10160000F0E0EE0FFF1FEC55FF4FA591B4918FB79F
:10161000F894EC91111108C0D095DE23DC938FBFB4
:10162000DF91CF911F910895DE2BF8CF1F920F927B
:101630000FB60F9211242F933F934F935F936F93A5
:101640007F938F939F93AF93BF93EF93FF9380917B
:10165000C6029091C702A091C802B091C902309110
:10166000C50223E0230F2D3798F50196A11DB11D6A
:101670002093C5028093C6029093C702A093C8022C
:10168000B093C9028091CA029091CB02A091CC0282
:10169000B091CD020196A11DB11D8093CA02909315
:1016A000CB02A093CC02B093CD020E947D0AFF91A1
:1016B000EF91BF91AF919F918F917F916F915F91CA
:1016C0004F913F912F910F900FBE0F901F90189543
:1016D00026E8230F0296A11DB11DCACF84B58260F2
:1016E00084BD84B5816084BD85B5826085BD85B5C6
:1016F000816085BDEEE6F0E0808181608083E1E875
:10170000F0E01082808182608083808181608083AC
:10171000E0E8F0E0808181608083E1EBF0E08081AF
:1017200084608083E0EBF0E0808181608083EAE781
:10173000F0E080818460808380818260808380810A
:10174000816080838081806880831092C1000895C9
:10175000FFCFFFCFCF93DF93E82FEE0FFF0BE75EB6
:10176000FD4FA081B1811496ED91FC9115973197B1
:1017700012968D919C911397E80FF91F1D968C91ED
:101780001D97EF012197823051F58CEA90E080831C
:10179000988316969C91169717968C911797EF0140
:1017A00022979883219788832197CF010A971882DF
:1017B00021978C179D07D9F720E8EC012883EF01CA
:1017C0002B97779718822197EC17FD07D9F70D9083
:1017D000BC91A02DED93FC93DF91CF91089588ECFF
:1017E00090E0D5CF089578940895F894089578946A
:1017F0000895F894089508950E946E0B0E94FB0BC3
:101800000E94810A0E94130A8091CE020E946B06F8
:1018100090E080E00895809163028093CE02089565
:1018200008951F920F920FB60F9211242F933F939A
:101830004F935F936F937F938F939F93AF93BF93D8
:10184000EF93FF93E091DA01F091DB010995FF91AD
:10185000EF91BF91AF919F918F917F916F915F9128
:101860004F913F912F910F900FBE0F901F901895A1
:101870001F920F920FB60F9211242F933F934F9305
:101880005F936F937F938F939F93AF93BF93EF93E8
:10189000FF93E091DC01F091DD010995FF91EF915B
:1018A000BF91AF919F918F917F916F915F914F9178
:1018B0003F912F910F900FBE0F901F901895CF92D0
:1018C000DF92EF92FF920F931F93CF93DF937C01F0
:1018D0006A0110E000E00C151D0581F0EB01D70155
:1018E000ED91FC910190F081E02D6991C70109957E
:1018F000892B21F00F5F1F4FBE01EDCFC801DF9193
:10190000CF911F910F91FF90EF90DF90CF900895AE
:10191000CF93DF93EC01DB01AB2B81F0FB01019056
:101920000020E9F73197AF01461B570BE881F98199
:101930000280F381E02DDF91CF91099490E080E067
:10194000DF91CF9108950C94880C6DEE71E00C94AA
:10195000880C6F927F928F929F92AF92BF92CF929C
:10196000DF92EF92FF920F931F93CF93DF93CDB748
:10197000DEB7A1970FB6F894DEBF0FBECDBF3C0116
:10198000142F052F962E872E19A2223008F42AE054
:101990005E0181E2A80EB11CC22ED12CF12CE12CEB
:1019A000612F702F892D982DA70196010E94DD0EC1
:1019B000812F902FA92DB82D122F032F942E852E15
:1019C0006A3014F5605DF50162935F018C159D0529
:1019D000AE05BF0528F7BF01C3010E94880CA19680
:1019E0000FB6F894DEBF0FBECDBFDF91CF911F9130
:1019F0000F91FF90EF90DF90CF90BF90AF909F90AE
:101A00008F907F906F900895695CDDCFF901EF2B87
:101A100041F4DC01ED91FC910190F081E02D642F07
:101A200009940C94A90C9A01AB0170E060E00C944D
:101A3000060D0F931F93CF93DF93D82FC92F0E94CA
:101A4000130D8C018D2F9C2F0E94A50C800F911FD0
:101A5000DF91CF911F910F9108952F932FB72F935F
:101A60008F939F93EF93FF93E091DF02F091E00259
:101A70008081E091E502F091E60282FD19C090813B
:101A80008091E8028F5F8F732091E902821741F005
:101A9000E091E802F0E0E153FD4F958F8093E8027A
:101AA000FF91EF919F918F912F912FBF2F911895BB
:101AB0008081F6CF1F920F920FB60F9211242F93B1
:101AC0003F934F935F936F937F938F939F93AF93C6
:101AD000BF93EF93FF938FEC92E00E94E90DFF918B
:101AE000EF91BF91AF919F918F917F916F915F9196
:101AF0004F913F912F910F900FBE0F901F9018950F
:101B0000EFECF2E01382128288EE93E0A0E0B0E006
:101B100084839583A683B78388E992E09183808349
:101B200085EC90E09587848784EC90E097878687A2
:101B300080EC90E0918B808B81EC90E0938B828B9A
:101B400082EC90E0958B848B86EC90E0978B868B73
:101B5000118E128E138E148E0895FC01818D228DAC
:101B600090E0805C9F4F821B91098F7399270895A5
:101B7000FC01918D828D981731F0828DE80FF11D57
:101B8000858D90E008958FEF9FEF0895FC01918D72
:101B9000828D981761F0A28DAE0FBF2FB11D5D969B
:101BA0008C91928D9F5F9F73928F90E008958FEF3D
:101BB0009FEF0895FC01538D448D252F30E0842F35
:101BC00090E0821B930B541710F0CF960895019765
:101BD0000895FC01A48DA80FB92FB11DA35ABF4FC2
:101BE0002C91848D90E001968F739927848FA6891C
:101BF000B7892C93A089B1898C91837080648C9370
:101C0000938D848D981306C00288F389E02D80811E
:101C10008F7D80830895CF93DF93EC01888D882397
:101C2000B9F0AA89BB89E889F9898C9185FD03C03F
:101C3000808186FD0DC00FB607FCF7CF8C9185FF24
:101C4000F2CF808185FFEDCFCE010E94E90DE9CF73
:101C5000DF91CF910895EF92FF920F931F93CF934F
:101C6000DF93EC01F62E81E0888F9B8D8C8D98138D
:101C70001AC0E889F989808185FF15C09FB7F8945B
:101C8000EE89FF896083E889F989808183708064A7
:101C900080839FBF81E090E0DF91CF911F910F91F2
:101CA000FF90EF9008950B8D10E00F5F1F4F0F73A3
:101CB0001127E02E8C8D8E110CC00FB607FCFACFC9
:101CC000E889F989808185FFF5CFCE010E94E90D71
:101CD000F1CFEB8DEC0FFD2FF11DE35AFF4FF0829A
:101CE0009FB7F8940B8FEA89FB8980818062D0CFFF
:101CF000CF92DF92EF92FF921F93CF93DF93EC018D
:101D00006A017B01122FE889F98982E08083C1147E
:101D100081EED806E104F104A1F060E079E08DE302
:101D200090E0A70196010E94DD0E21503109410982
:101D300051095695479537952795211580E1380724
:101D400098F0E889F989108260E874E88EE190E003
:101D5000A70196010E94DD0E215031094109510968
:101D60005695479537952795EC85FD853083EE850B
:101D7000FF852083188EEC89FD891083EA89FB8911
:101D8000808180618083EA89FB898081886080838B
:101D9000EA89FB89808180688083EA89FB89808168
:101DA0008F7D8083DF91CF911F91FF90EF90DF9027
:101DB000CF900895F8940C94050FA1E21A2EAA1B57
:101DC000BB1BFD010DC0AA1FBB1FEE1FFF1FA217EB
:101DD000B307E407F50720F0A21BB30BE40BF50BE8
:101DE000661F771F881F991F1A9469F76095709571
:101DF000809590959B01AC01BD01CF010895EE0F38
:0E1E0000FF1F0590F491E02D0994F894FFCF98
:101E0E0000000000000000000000000000000000C4
:101E1E0000000000000000000000000000000000B4
:101E2E0000000000000000000000000000000000A4
:101E3E000000000000000000000000000000000094
:101E4E000000000000000000000000000000000084
:101E5E000000000000000000000000000000000074
:101E6E000000000000000000FFDC05EE02F401009F
:101E7E00004B020000C002FFFFFFFFFFFFFFFF004D
:101E8E0000F60100000000000000007017000002C4
:101E9E00FF0100000000EE020000DC050000020859
:101EAE000200000000F4010000F401000002000036
:101EBE000003000000000204000000010001000009
:101ECE0000FFFF0000010000000000000000000005
:101EDE0000000000000400FF0000100C100CFF5466
:101EEE0061736B4120005461736B4220000D0A0038
:101EFE009F0190018101BD01CC08FC01580602BD75
:101F0E0001CC080502580600BD01CC080E02580689
:101F1E0001B801B301AE01C0023D022F0221024BF6
:101F2E00027003CE0480006C0A0000020301006EF2
:101F3E0003FE038000240A0000010201006C037CF2
:101F4E00038000480A000000010100FC037E0450DB
:101F5E0000A80B000003000100D5010100010101E2
:101F6E00000100006D073B0744071D07BD04BA06BC
:101F7E00AA04E306BC07610669066F08AC07A4084D
:101F8E00D307D5081C0809095C065809F607B609D7
:101F9E00F0093808000000002B0E5F0CDA0D0B0E56
:061FAE00AD0DC60DB80DDB
:00000001FF
