:100000000C945D000C94C30B0C94EA0B0C948500CB
:100010000C9485000C9485000C9485000C9485004C
:100020000C9485000C9485000C9485000C9485003C
:100030000C9485000C9485000C9485000C9485002C
:100040000C94C80A0C9485000C9485000C948500CF
:100050000C9485000C9485000C9485000C9485000C
:100060000C9485000C94850000000008000201003B
:100070000003040700000000000000000102040863
:100080001020408001020408102001020408102002
:10009000040404040404040402020202020203032E
:1000A0000303030300000000250028002B000000CC
:1000B0000000240027002A00BD0B11241FBECFEF33
:1000C000D8E0DEBFCDBF12E0A0E0B1E0E8E3F8E1A8
:1000D00002C005900D92AE37B107D9F724E0AEE724
:1000E000B2E001C01D92A738B207E1F710E0CDE5FC
:1000F000D0E004C02197FE010E94140CCC35D1073A
:10010000C9F70E94AE0B0C94110C0C940000E2E1B4
:100110000E942C010895E9E00E942C010895EAE074
:100120000E942C010895E1E00E942C010895E3E073
:100130000E942C010895E7E00E942C010895E5E05B
:100140000E942C010895E0E00E942C010895E2E055
:100150000E942C010895E4E00E942C010895ECE037
:100160000E942C010895E8E00E942C010895EEE021
:100170000E942C010895E4E10E942C010895E0E121
:100180000E942C010895E7E10E942C010895E6E009
:100190000E942C010895EBE00E942C010895EDE0EF
:1001A0000E942C010895EFE00E942C010895E1E1E6
:1001B0000E942C010895E3E10E942C010895E5E1DD
:1001C0000E942C010895E6E10E942C0108952196D9
:1001D0008A929A92AA92BA92CA92DA92EA92FA927F
:1001E0000A931A932197E0916901F0916A010080C6
:1001F000F181E02DC083D1830895C0916B01D0912E
:100200006C01E881F981C081D18121961991099110
:10021000F990E990D990C990B990A9909990899056
:10022000219708952F903F90E7E6F1E0CDB7DEB734
:10023000EDBFFEBF3F922F9208952F903F90CDBF0C
:10024000DEBF3F922F920895E0E80E942C010895AE
:10025000E0E40E942C0108952F923F924F925F920A
:100260006F927F922FB62F92CF93DF937E2EF894CA
:10027000E0910001EF5FE0930001E13011F40E9492
:100280001201E0E0E0937901E72DE07849F00E9467
:100290009505F0917A01F17071F00E9418040BC07D
:1002A000E72DEC3140F4EE0FF0E0E35BFD4F019001
:1002B000F081E02D0995F0917901EF2FE17059F06F
:1002C000F27011F00E94E7008F938F2F0E9462035B
:1002D0008F910E94FD002091000121502093000188
:1002E000222311F40E941D01DF91CF912F902FBE88
:1002F0007F906F905F904F903F902F900895FC01FA
:100300004081FB013081842F8F7090E0B0E0A0E04D
:10031000B695A795979587958F569D4FFC0180813F
:10032000242F281B21704E70242B832F8F7090E078
:10033000B0E0A0E0B695A795979587958F569D4F0D
:10034000FC018081932F981B91703E70932B41E0AC
:1003500050E0291710F050E040E0CA010895AF9234
:10036000BF92CF92DF92EF92FF920F931F93CF93A2
:10037000DF938C01CA01DB016A017B01F694E794EB
:10038000D794C79482309105A105B10580F0880FFC
:10039000991FE801C80FD91F5601AA0CBB1CA00E5B
:1003A000B11EBE01C5010E947F01892B59F4DF9166
:1003B000CF911F910F91FF90EF90DF90CF90BF9062
:1003C000AF90089598818981F50120813181398329
:1003D000288390838183D701C601D0CF4F925F924B
:1003E0006F927F928F929F92AF92BF92CF92DF9245
:1003F000EF92FF92CF93DF9300D000D000D0CDB723
:10040000DEB78D839E836A017B01AD81BE818C91B5
:10041000282F30E050E040E029833A834B835C830F
:1004200046015701880C991CAA1CBB1C29813A81E2
:100430004B815C81281539054A055B05A8F4269691
:100440000FB6F894DEBF0FBECDBFDF91CF91FF9006
:10045000EF90DF90CF90BF90AF909F908F907F9064
:100460006F905F904F900895240135013FEF431A3C
:10047000530A630A730A89819A81AB81BC8184150E
:100480009505A605B70590F0B201660F771FAD81FF
:10049000BE816A0F7B1FC401880F991F8A0F9B1FA3
:1004A0000E947F01892B11F0530142013401660C37
:1004B000771CED81FE816E0E7F1ECC0CDD1CCE0EF6
:1004C000DF1EB301C6010E947F01892B09F4B7CF5B
:1004D000D6019C9111968C911197F3012081318165
:1004E0002D933C93908381837501640199CFEBEA4E
:1004F000F2E040814F5F408350E070E060E0E82F21
:10050000EE0FFF0BEE5FFD4F0190F081E02D238594
:1005100030E0F901EF56FD4F908191509083FA0140
:10052000EE0FFF1FE555FD4F220F331F9170922BE9
:10053000908381838BEA92E00C94AF01EBEAF2E0C6
:1005400040814F5F408350E070E060E0FA01EE0FC1
:10055000FF1FE555FD4FA82FAA0FBB0BA650BE4F9E
:100560000D90BC91A02D13969C91908381838BEA72
:1005700092E00C94AF01CF93DF93EBEAF2E080813D
:100580009FEF980F9083D281C38190E0880F991FCD
:1005900085559D4FDC018D919C919383828341E031
:1005A00050E060E070E0CF010E94EE018D2F9C2FA3
:1005B000DF91CF91089580917E02811115C0409105
:1005C00071015091720160917301709174014F3FFC
:1005D0009FEF59076907790751F0433051056105CD
:1005E000710524F481E0089584E0089582E008957F
:1005F000CF93DF93880F990BFC01EE5FFD4F0190C5
:10060000F081E02D0084F185E02D3097E1F022812A
:10061000211119C021E0228386509E4FEC01A88150
:10062000B98113968C9113978183208130E0F90171
:10063000EF56FD4F808181508083220F331F8170E0
:10064000822B13968C93DF91CF910895CF93DF93F4
:10065000880F990BFC01EE5FFD4F0190F081E02DBA
:100660000084F185E02D309761F02281213049F43A
:10067000128286509E4FEC01A881B9818181139628
:100680008C93DF91CF9108958091750190917601BF
:10069000A0917701B0917801409171015091720160
:1006A0006091730170917401481759076A077B07BD
:1006B00041F0E0916F01F091700121E024830C94EE
:1006C0009E020895CF93DF93D0E0C0E0882389F0A5
:1006D000C0916901D0916A01E0916D01F0916E01C4
:1006E0008481833031F081E08483809171010E94A4
:1006F0009E02E0916F01F0917001F0936E01E09322
:100700006D0180916B0190916C0190936A018093CF
:100710006901809175013091760120917701909166
:10072000780180937101309372012093730190934B
:10073000740192E094830E94F802CE01DF91CF9180
:100740000895809171010E942603E0916D01F0915E
:100750006E018281882319F085E0848308951482D4
:100760000895CF93DF93282F220F330BF901E65022
:10077000FE4FC081D1819A812E5F3D4FD901ED910D
:10078000FC912485921780F4911105C095E09C831B
:1007900091E090937A010E9477028A818F5F8A8329
:1007A00080E0DF91CF91089584E0FBCFE82FEE0F3A
:1007B000FF0BE650FE4F0190F081E02D1182108278
:1007C0000C945C0B1F93CF93DF930E94BB02182FF6
:1007D000892F492F092E000C550B660B770B409380
:1007E0007501509376016093770170937801292FFA
:1007F000220F330BF901E650FE4FC081D181D09317
:100800007001C0936F012E5F3D4FF901208131814E
:1008100030936C0120936B019C81953019F40E94F8
:10082000D6031B8310927A01DF91CF911F91089517
:10083000E0917501F0917601EE0FFF1FE650FE4F3B
:100840000190F081E02D9091AD028381891740F4F1
:100850000E9444030E94E20383E08093790108959B
:1008600080E0FBCF81E0809379010C94E203EF926A
:10087000FF920F931F93CF93DF93C1E001C0CC0F82
:100880008A95EAF7209108023091090280910002CE
:10089000909101021092AB0210926A0110926901CC
:1008A00030936C0120936B0110926E0110926D01D8
:1008B0009093700180936F018FEF9FEFDC01809325
:1008C000710190937201A0937301B09374018093AE
:1008D000750190937601A0937701B09378011092FF
:1008E000790110927A0183E00E94B10329E4E22E9B
:1008F00022E0F22E10E0F70181917F018C2319F0A4
:10090000812F0E94B1031F5F1330A9F796E4E92EEF
:1009100092E0F92E10E000E0D1E0F70181917F0133
:100920008C2359F0F801EE0FFF1FE752FE4F808134
:100930009181FC01D6870E94D3040F5F1F4F0330C3
:10094000110559F7DF91CF911F910F91FF90EF9013
:1009500008950E94760681110E949606E0916D012D
:10096000F0916E0180819181892B21F0809171013C
:100970000E9450080C94BB070E94760681110E94C9
:100980009606E0916D01F0916E0180819181892B35
:1009900021F0809171010E9450080C94A60781E01B
:1009A00080937F020895CF92DF92EF92FF920F9390
:1009B0001F93CF93DF93FC01A081B1810D90BC9177
:1009C000A02D54968D919C915597009709F445C0A0
:1009D000428553856485758530E020E0EC01CA844A
:1009E000DB84EC84FD844C155D056E057F0508F005
:1009F00049C08C01138302833583248301151105BB
:100A000019F0E801FD83EC832115310509F444C098
:100A1000E901FB83EA835696CD91DC9157970A85CD
:100A20001B852C853D855096CD90DD90ED90FC90FA
:100A300053970C151D052E053F0598F5C416D506D0
:100A4000E606F70628F0401751076207730788F497
:100A50005796FC93EE9356970CC05596FC93EE93E5
:100A600054975796FC93EE935697158214821382EF
:100A70001282DF91CF911F910F91FF90EF90DF9045
:100A8000CF900895EC010A811B819C01011511058D
:100A900009F4B0CFC801A2CF5596FC93EE935497BA
:100AA000BACFC416D506E606F70618F7CCCFCF9313
:100AB000DF93FC01A081B1810D90BC91A02DC2817A
:100AC000D38154968D919C9155978E179F0721F451
:100AD0005596DC93CE93549756968D919C9157974B
:100AE0008E179F0721F45796DC93CE935697209745
:100AF00021F0848195819D838C830480F581E02D94
:100B0000309711F0D383C28356968D919C9157975D
:100B1000892B41F454968D919C91559757969C93AF
:100B20008E935697DF91CF910895EF92FF920F9396
:100B30001F93CF93DF93EC0180917F02882309F408
:100B4000A8C08C859D85AE85BF850196A11DB11D70
:100B50008C879D87AE87BF87488159816A817B8159
:100B600084179507A607B70709F093C08889998964
:100B7000AA89BB890196A11DB11D4C815D816E8141
:100B80007F81481759076A077B0718F480E090E0D7
:100B9000DC01888B998BAA8BBB8B1C861D861E86DD
:100BA0001F860E891F890115110509F472C0F8010D
:100BB0004285538564857585481759076A077B0701
:100BC00009F067C09F010280F381E02D309749F062
:100BD000428553856485758584179507A607B707F1
:100BE00089F3D80114968D919C91009729F0DC012E
:100BF0001396FC93EE931297309711F095838483AC
:100C00008C899D890817190711F4FD8BEC8B30979F
:100C100009F446C0FF8BEE8BF90113821282780132
:100C2000D80112960D911C911397ED91FC910280C1
:100C3000F381E02DC7010995F70186819781A08591
:100C4000B1850097A105B10581F142855385648581
:100C50007585840F951FA61FB71F4C815D816E811E
:100C60007F81481759076A077B0740F440955095E4
:100C700060957095840F951FA61FB71FF701828797
:100C80009387A487B587C7010E94D3040115110576
:100C900031F6DF91CF911F910F91FF90EF90089562
:100CA0008C899D899F8B8E8BB7CF1686EFCFFC01E9
:100CB00082810C94B1030E947606809168010895A8
:100CC000809368010E9437040E94CF040C94320480
:100CD0000C945B0BCF93C82F0E94DB02811102C0E2
:100CE0000E94A40B8C2FCF910C948B0020918C022E
:100CF0002130D1F0409184025091850260918602AA
:100D0000709187028091880290918902A0918A0255
:100D1000B0918B02842B952BA62BB72B21E0892B2E
:100D20008A2B8B2B09F420E0822F089510928C02DD
:100D3000109288021092890210928A0210928B02FD
:100D400010928402109285021092860210928702FD
:100D50008091800290918102A0918202B0918302E1
:100D600080938D0290938E02A0938F02B093900295
:100D700008950E94A70B80918D0290918E02A09100
:100D80008F02B09190020196A11DB11D80938D023A
:100D900090938E02A0938F02B0939002809188026C
:100DA00090918902A0918A02B0918B020196A11DB7
:100DB000B11D8093880290938902A0938A02B09318
:100DC0008B0208958091880290918902A0918A02F5
:100DD000B0918B020097A105B10569F140918D0298
:100DE00050918E0260918F02709190024150510992
:100DF0006109710940938D0250938E0260938F02B6
:100E0000709390020197A109B10980938802909391
:100E10008902A0938A02B0938B0280918D029091F7
:100E20008E02A0918F02B0919002892B8A2B8B2B7E
:100E300011F40C94A50B0895809188029091890279
:100E4000A0918A02B0918B02409184025091850258
:100E50006091860270918702842B952BA62BB72B6D
:100E6000892B8A2B8B2B29F40E94A70B81E080937E
:100E70008C02089580918C02882321F010928C02BC
:100E80000C94A50B08950E94AB0B80918D0290915C
:100E90008E02A0918F02B09190020196A11DB11D0A
:100EA00080938D0290938E02A0938F02B093900254
:100EB0008091840290918502A0918602B091870270
:100EC0000196A11DB11D8093840290938502A09389
:100ED0008602B093870208958091840290918502E2
:100EE000A0918602B09187020097A105B10569F132
:100EF00040918D0250918E0260918F02709190020C
:100F0000415051096109710940938D0250938E023D
:100F100060938F02709390020197A109B1098093A9
:100F2000840290938502A0938602B09387028091F9
:100F30008D0290918E02A0918F02B0919002892B28
:100F40008A2B8B2B11F40C94A90B08950E94760622
:100F5000811183E10895CF93C82F0E9476068C2FCC
:100F60000E94B103C82F80917A0181110E94180458
:100F70008C2FCF910895CF930E947606C82F8111B0
:100F8000C3E1E0916D01F0916E0182818150828315
:100F90000E94A10381E0809379010E94E2038C2FDB
:100FA000CF910895CF93C82F0E947606E0916D01EE
:100FB000F0916E018281815082838C2F0E94B10357
:100FC000C82F81110AC00E94A10381E0809379019A
:100FD0000E94E2038C2FCF910895E0916D01F09172
:100FE0006E0182818F5F8283F5CFCF930E94760658
:100FF000C82F8111C3E1809171010E9426030E94D4
:1010000018048091710190917201A0917301B091C7
:101010007401409175015091760160917701709152
:10102000780184179507A607B70711F40E94F80204
:101030008C2FCF910895CF93DF93EC010E94760619
:10104000811183E1409171015091720160917301AE
:1010500070917401433051056105710524F4488392
:10106000DF91CF9108959091D8019883F9CF0F9394
:101070001F93CF93C82F8B010E947606811183E1C5
:10108000EC2FEE0FFF0BE650FE4F0190F081E02DAC
:1010900094819370F8019083CF911F910F910895DF
:1010A000E82FEE0FFF0BE650FE4FA081B181ED91CE
:1010B000FC911197309789F01D921C928091D80174
:1010C000DF010380F481E02D12968C931297149621
:1010D0001C921E921397309799F70895CF93C82FBB
:1010E0000E947606811183E1EC2FF0E0EE0FFF1FE6
:1010F000EE5BFD4F0190F081E02D909171019283A4
:10110000A0916D01B0916E012D913C9111973483A6
:1011100023831196FC93EE9313969C9113979183DE
:1011200020819695921768F430E0F901EF56FD4F53
:10113000908191509083220F331F9170922B1396C0
:101140009C93CF910895CF93DF93C82F0E9476068A
:10115000D82F8111D3E1EC2FF0E0EE0FFF1FEE5BF3
:10116000FD4F0190F081E02DA0916D01B0916E01D5
:10117000818113968C931397838194818D939C9393
:10118000148213828091D80182830E9418048D2FCB
:10119000DF91CF910895DC01ED91FC9184819581DF
:1011A000DC01ED91FC9109941F93CF93DF93182FED
:1011B000EB010E947606811183E1E12FF0E0EE0F52
:1011C000FF1FE752FE4F0190F081E02D0190F0816A
:1011D000E02D0190F081E02D408151816281738189
:1011E0004C835D836E837F834481558166817781E3
:1011F000488359836A837B834085518562857385E3
:10120000488759876A877B87DF91CF911F9108951F
:101210008F929F92AF92BF92CF92DF92EF92FF9206
:101220000F931F93CF93C82F8B010E9476068111D5
:1012300083E1EC2FF0E0EE0FFF1FE752FE4F01902D
:10124000F081E02D9685913081F542855385648546
:1012500075850190F081E02D0190F081E02DC0882E
:10126000D188E288F3884C155D056E057F0540F452
:1012700084809580A680B780480D591D6A1D7B1D0E
:101280004C195D096E097F09F8014083518362831F
:101290007383CF911F910F91FF90EF90DF90CF90CC
:1012A000BF90AF909F908F90089585E0F2CFAF925E
:1012B000BF92CF92DF92EF92FF920F931F93CF9343
:1012C000DF93A82E6A017B01B22ED32F0E947606EF
:1012D000C82F8111C3E1EA2DF0E0EE0FFF1FE752A6
:1012E000FE4F0190F081E02D868581113CC0A081E8
:1012F000B1810D90BC91A02D50964D915D916D9155
:101300007C915397C40ED51EE61EF71E14968D9140
:101310009D910D90BC91A02D8C159D05AE05BF052E
:1013200048F4C81AD90AEA0AFB0A81E0C81AD108A7
:10133000E108F108C286D386E486F5860683178322
:10134000B086D18781E08687CF010E94D3048C2F9D
:10135000DF91CF911F910F91FF90EF90DF90CF9091
:10136000BF90AF900895C7E0F2CFAF92BF92CF92F7
:10137000DF92EF92FF920F931F93CF93DF93C82FCB
:101380005A016B0179010E947606D82F8111D3E1B1
:10139000EC2FF0E0EE0FFF1FE752FE4F0190F081BF
:1013A000E02D8685811119C0A286B386C486D586B4
:1013B00006831783E086F18681E08687CF010E944D
:1013C000D3048D2FDF91CF911F910F91FF90EF905C
:1013D000DF90CF90BF90AF900895D7E0F2CF0F93FA
:1013E0001F93CF93DF93C82F0E947606D82F8111C9
:1013F000D3E1EC2FF0E0EE0FFF1FE752FE4F00812C
:101400001181F8018685813059F4C8010E94570581
:10141000F80116868D2FDF91CF911F910F910895BE
:10142000D5E0F8CF61E08DE00C945E0A61E08DE0DC
:101430000E949A0A0C94B30060E08DE00E949A0A20
:101440000C94B300809145020E94E3008091440215
:101450000E94E30080E00E948F000C94B30087EBB1
:1014600091E00C9424010895843099F038F482308E
:10147000C1F0833041F0813081F008958730A1F0D0
:101480008830C1F00895809180008F77809380002C
:101490000895809180008F7DF9CF84B58F7784BDCA
:1014A000089584B58F7DFBCF8091B0008F778093B6
:1014B000B00008958091B0008F7DF9CFCF93DF9376
:1014C00090E0FC01E458FF4F249180579F4FFC01AE
:1014D00084918823C9F090E0880F991FFC01E255A0
:1014E000FF4FA591B491FC01EC55FF4FC591D491EC
:1014F00061110DC09FB7F8948C91209582238C9335
:101500008881282328839FBFDF91CF91089562307F
:1015100051F49FB7F8943C91822F809583238C934C
:10152000E8812E2BEFCF8FB7F894EC912E2B2C93D4
:101530008FBFEACF1F93CF93DF93162F282F30E072
:10154000F901E859FF4F8491F901E458FF4FD49114
:10155000F901E057FF4FC491CC23A1F081110E9403
:10156000340AEC2FF0E0EE0FFF1FEC55FF4FA59172
:10157000B4918FB7F894EC91111108C0D095DE2387
:10158000DC938FBFDF91CF911F910895DE2BF8CFB1
:101590001F920F920FB60F9211242F933F934F93E8
:1015A0005F936F937F938F939F93AF93BF93EF93CB
:1015B000FF9380919C0290919D02A0919E02B09118
:1015C0009F0230919B0223E0230F2D3798F501965F
:1015D000A11DB11D20939B0280939C0290939D02BC
:1015E000A0939E02B0939F028091A0029091A102CD
:1015F000A091A202B091A3020196A11DB11D8093FA
:10160000A0029093A102A093A202B093A3020E9411
:101610002F0AFF91EF91BF91AF919F918F917F9191
:101620006F915F914F913F912F910F900FBE0F904F
:101630001F90189526E8230F0296A11DB11DCACF51
:1016400084B5826084BD84B5816084BD85B58260C7
:1016500085BD85B5816085BDEEE6F0E08081816065
:101660008083E1E8F0E01082808182608083808165
:1016700081608083E0E8F0E0808181608083E1EB3D
:10168000F0E0808184608083E0EBF0E08081816025
:101690008083EAE7F0E080818460808380818260DB
:1016A00080838081816080838081806880831092C4
:1016B000C1000895FFCFFFCFCF93DF93E82FEE0F48
:1016C000FF0BEE5FFD4FA081B1811496ED91FC916F
:1016D0001597319712968D919C911397E80FF91FEA
:1016E0001D968C911D97EF012197823051F58BEA61
:1016F00090E08083988316969C91169717968C910C
:101700001797EF0122979883219788832197CF011C
:101710000A97188221978C179D07D9F720E8EC01CA
:101720002883EF012B97779718822197EC17FD07F5
:10173000D9F70D90BC91A02DED93FC93DF91CF9143
:10174000089587EC90E0D5CF089578940895F894A3
:10175000089578940895F894089508950E94200BB0
:101760000E94AD0B0E94330A0E94120A8091A402CB
:101770000E946A0690E080E0089580914C02809378
:10178000A402089508951F920F920FB60F9211248C
:101790002F933F934F935F936F937F938F939F9379
:1017A000AF93BF93EF93FF93E091D401F091D501F4
:1017B0000995FF91EF91BF91AF919F918F917F918B
:1017C0006F915F914F913F912F910F900FBE0F90AE
:1017D0001F9018951F920F920FB60F9211242F93FE
:1017E0003F934F935F936F937F938F939F93AF93A9
:1017F000BF93EF93FF93E091D601F091D701099544
:10180000FF91EF91BF91AF919F918F917F916F91D8
:101810005F914F913F912F910F900FBE0F901F90AE
:101820001895F8940C941A0CEE0FFF1F0590F49184
:08183000E02D0994F894FFCFAC
:1018380000000000000000000000000000000000A0
:101848000000000000000000000000000000000090
:101858000000000000000000000000000000000080
:101868000000000000000000000000000000000070
:101878000000000000000000000000000000000060
:101888000000000000000000000000000000000050
:101898000000000000000000FF0000340200009675
:1018A80002FFFFFFFFFFFFFFFF0000DF0100000056
:1018B80000000000007017000002E80100000000AE
:1018C800EE0200009600000002F10100000000F4A2
:1018D80001000032000000020000000300000000C8
:1018E8000204000000010001000000FFFF000001E9
:1018F80000000000000000000000000000000004DC
:1019080000FF0000C20BC20BFF99018A017B01B7DF
:1019180001CB08E501570602B701CB08EE015706CF
:1019280000B701CB08F701570601B201AD01A801C4
:101938009602260218020A023402A902070480004D
:10194800220A000002030100A70237038000160ADA
:10195800000001020100A502B50280001C0A000077
:10196800000101003503B70350005A0B00000300C3
:101978000100CF010100010101000100006C073ADC
:101988000743071C07BC04B906A904E206BB0760A5
:101998000668066E08AB07A308D207D4081B080818
:0E19A800095B065709F507B509EF0937080076
:00000001FF
