:100000000C9463000C94F20E0C94190F0C948B005A
:100010000C948B000C948B000C948B000C948B0034
:100020000C948B000C948B000C948B000C948B0024
:100030000C948B000C948B000C948B000C948B0014
:100040000C94DC0D0C948B000C9469100C9496109D
:100050000C948B000C948B000C948B000C948B00F4
:100060000C948B000C948B0000000008000201002F
:100070000003040700000000000000000102040863
:100080001020408001020408102001020408102002
:10009000040404040404040402020202020203032E
:1000A00003030303000000002300260029000000D2
:1000B0000000250028002B0000000000240027007D
:1000C0002A00EC0EBC1011241FBECFEFD8E0DEBF1B
:1000D000CDBF13E0A0E0B1E0E6E8F4E202C0059095
:1000E0000D92A238B107D9F726E0A2E8B3E001C02B
:1000F0001D92A937B207E1F710E0C3E6D0E004C0D3
:100100002197FE010E943B12C136D107C9F70E9418
:10011000DD0E0C9416120C940000E4E10E944201E2
:100120000895E2E10E9442010895EAE00E9442013E
:100130000895E1E00E9442010895E3E00E94420137
:100140000895E7E00E9442010895E5E00E9442011F
:100150000895E0E00E9442010895E2E00E94420119
:100160000895E4E00E9442010895ECE00E944201FB
:100170000895EBE10E9442010895EEE00E944201E1
:100180000895E8E00E9442010895E0E10E944201E2
:100190000895EAE10E9442010895E6E00E944201CA
:1001A0000895E8E10E9442010895E9E00E944201B9
:1001B0000895EBE00E9442010895EDE00E944201A3
:1001C0000895EFE00E9442010895E1E10E9442019A
:1001D0000895E3E10E9442010895E5E10E94420191
:1001E0000895E7E10E9442010895E9E10E94420179
:1001F0000895E6E10E944201089521968A929A921A
:10020000AA92BA92CA92DA92EA92FA920A931A934C
:100210002197E0917401F09175010080F181E02D4A
:10022000C083D1830895C0917601D0917701E88190
:10023000F981C081D181219619910991F990E990B4
:10024000D990C990B990A9909990899021970895D3
:100250002F903F90E7E6F1E0CDB7DEB7EDBFFEBFF0
:100260003F922F9208952F903F90CDBFDEBF3F92D7
:100270002F920895E0E80E9442010895E0E40E9470
:10028000420108952F923F924F925F926F927F9218
:100290002FB62F92CF93DF937E2EF894E09100013A
:1002A000EF5FE0930001E13011F40E942801E0E0EB
:1002B000E0938401E72DE07849F00E94AB05F091CE
:1002C0008501F17071F00E942E040BC0E72DEC3116
:1002D00040F4EE0FF0E0E85CFC4F0190F081E02D7F
:1002E0000995F0918401EF2FE17059F0F27011F04F
:1002F0000E94FD008F938F2F0E9478038F910E94A0
:10030000130120910001215020930001222311F4B8
:100310000E943301DF91CF912F902FBE7F906F907D
:100320005F904F903F902F900895FC014081FB011A
:100330003081842F8F7090E0B0E0A0E0B695A79553
:100340009795879583569C4FFC018081242F281B0D
:1003500021704E70242B832F8F7090E0B0E0A0E0CE
:10036000B695A7959795879583569C4FFC018081FC
:10037000932F981B91703E70932B41E050E029170A
:1003800010F050E040E0CA010895AF92BF92CF92C2
:10039000DF92EF92FF920F931F93CF93DF938C0125
:1003A000CA01DB016A017B01F694E794D794C794F4
:1003B00082309105A105B10580F0880F991FE801F1
:1003C000C80FD91F5601AA0CBB1CA00EB11EBE013E
:1003D000C5010E949501892B59F4DF91CF911F919E
:1003E0000F91FF90EF90DF90CF90BF90AF90089566
:1003F00098818981F5012081318139832883908317
:100400008183D701C601D0CF4F925F926F927F92C6
:100410008F929F92AF92BF92CF92DF92EF92FF9214
:10042000CF93DF9300D000D000D0CDB7DEB78D835F
:100430009E836A017B01AD81BE818C91282F30E0C3
:1004400050E040E029833A834B835C8346015701A7
:10045000880C991CAA1CBB1C29813A814B815C81A8
:10046000281539054A055B05A8F426960FB6F894B9
:10047000DEBF0FBECDBFDF91CF91FF90EF90DF9039
:10048000CF90BF90AF909F908F907F906F905F9034
:100490004F900895240135013FEF431A530A630A30
:1004A000730A89819A81AB81BC8184159505A60563
:1004B000B70590F0B201660F771FAD81BE816A0F5C
:1004C0007B1FC401880F991F8A0F9B1F0E949501F3
:1004D000892B11F0530142013401660C771CED8128
:1004E000FE816E0E7F1ECC0CDD1CCE0EDF1EB30116
:1004F000C6010E949501892B09F4B7CFD6019C91C2
:1005000011968C911197F301208131812D933C93A9
:10051000908381837501640199CFE5E1F5E0408125
:100520004F5F408350E070E060E0E82FEE0FFF0B7C
:10053000E751FD4F0190F081E02D238530E0F90176
:10054000E356FC4F908191509083FA01EE0FFF1F0C
:10055000EB5EFA4F220F331F9170922B90838183B1
:1005600085E195E00C94C501E5E1F5E040814F5F40
:10057000408350E070E060E0FA01EE0FFF1FEB5E99
:10058000FA4FA82FAA0FBB0BAF51BD4F0D90BC91D6
:10059000A02D13969C919083818385E195E00C9426
:1005A000C501CF93DF93E5E1F5E080819FEF980FE0
:1005B0009083D281C38190E0880F991F8B5E9A4F00
:1005C000DC018D919C919383828341E050E060E057
:1005D00070E0CF010E9404028D2F9C2FDF91CF91FC
:1005E000089580918203811115C040917C01509142
:1005F0007D0160917E0170917F014F3F9FEF590710
:100600006907790751F0433051056105710524F4FC
:1006100081E0089584E0089582E00895CF93DF9308
:10062000880F990BFC01E751FD4F0190F081E02DFF
:100630000084F185E02D3097E1F02281211119C06D
:1006400021E022838F519D4FEC01A881B98113963F
:100650008C9113978183208130E0F901E356FC4FA0
:10066000808181508083220F331F8170822B1396EB
:100670008C93DF91CF910895CF93DF93880F990BDF
:10068000FC01E751FD4F0190F081E02D0084F185E0
:10069000E02D309761F02281213049F412828F5190
:1006A0009D4FEC01A881B981818113968C93DF91D4
:1006B000CF9108958091800190918101A091820154
:1006C000B091830140917C0150917D0160917E0148
:1006D00070917F01481759076A077B0741F0E09145
:1006E0007A01F0917B0121E024830C94B4020895F7
:1006F000CF93DF93D0E0C0E0882389F0C0917401EC
:10070000D0917501E0917801F09179018481833075
:1007100031F081E0848380917C010E94B402E091F9
:100720007A01F0917B01F0937901E0937801809157
:100730007601909177019093750180937401809177
:1007400080013091810120918201909183018093F9
:100750007C0130937D0120937E0190937F0192E094
:1007600094830E940E03CE01DF91CF910895809172
:100770007C010E943C03E0917801F0917901828133
:10078000882319F085E08483089514820895CF9317
:10079000DF93282F220F330BF901EF51FD4FC0815A
:1007A000D1819A8127513D4FD901ED91FC9124854A
:1007B000921780F4911105C095E09C8391E090938D
:1007C00085010E948D028A818F5F8A8380E0DF919C
:1007D000CF91089584E0FBCFE82FEE0FFF0BEF5190
:1007E000FD4F0190F081E02D118210820C948B0E50
:1007F0001F93CF93DF930E94D102182F892F492F87
:10080000092E000C550B660B770B4093800150931B
:1008100081016093820170938301292F220F330B92
:10082000F901EF51FD4FC081D181D0937B01C0937D
:100830007A0127513D4FF9012081318130937701B1
:10084000209376019C81953019F40E94EC031B8360
:1008500010928501DF91CF911F910895E091800161
:10086000F0918101EE0FFF1FEF51FD4F0190F081DC
:10087000E02D909117058381891740F40E945A0357
:100880000E94F80383E080938401089580E0FBCF09
:1008900081E0809384010C94F803EF92FF920F9310
:1008A0001F93CF93DF93C1E001C0CC0F8A95EAF785
:1008B0002091EF023091F0028091E7029091E802DE
:1008C0001092150510927501109274013093770102
:1008D00020937601109279011092780190937B0118
:1008E00080937A018FEF9FEFDC0180937C019093DE
:1008F0007D01A0937E01B0937F018093800190934E
:100900008101A0938201B09383011092840110921F
:10091000850183E00E94C70324E3E22E23E0F22E48
:1009200010E0F70181917F018C2319F0812F0E9443
:10093000C7031F5F1330A9F791E3E92E93E0F92E67
:1009400010E000E0D1E0F70181917F018C2359F0A4
:10095000F801EE0FFF1FE054FD4F80819181FC01F3
:10096000D6870E94E9040F5F1F4F0330110559F726
:10097000DF91CF911F910F91FF90EF9008950E940A
:10098000A60781110E94C607E0917801F0917901D4
:1009900080819181892B21F080917C010E948009C6
:1009A0000C94EB080E94A60781110E94C607E091F3
:1009B0007801F091790180819181892B21F08091DA
:1009C0007C010E9480090C94D60881E08093830307
:1009D0000895CF92DF92EF92FF920F931F93CF93E0
:1009E000DF93FC01A081B1810D90BC91A02D5496A4
:1009F0008D919C915597009709F445C04285538588
:100A00006485758530E020E0EC01CA84DB84EC84E9
:100A1000FD844C155D056E057F0508F049C08C010D
:100A200013830283358324830115110519F0E8012E
:100A3000FD83EC832115310509F444C0E901FB83F2
:100A4000EA835696CD91DC9157970A851B852C85B4
:100A50003D855096CD90DD90ED90FC9053970C1510
:100A60001D052E053F0598F5C416D506E606F706C2
:100A700028F0401751076207730788F45796FC93D4
:100A8000EE9356970CC05596FC93EE935497579659
:100A9000FC93EE9356971582148213821282DF9193
:100AA000CF911F910F91FF90EF90DF90CF9008951D
:100AB000EC010A811B819C010115110509F4B0CFDD
:100AC000C801A2CF5596FC93EE935497BACFC416A3
:100AD000D506E606F70618F7CCCFCF93DF93FC01D7
:100AE000A081B1810D90BC91A02DC281D38154967B
:100AF0008D919C9155978E179F0721F45596DC9305
:100B0000CE93549756968D919C9157978E179F0729
:100B100021F45796DC93CE935697209721F0848149
:100B200095819D838C830480F581E02D309711F0B1
:100B3000D383C28356968D919C915797892B41F40C
:100B400054968D919C91559757969C938E9356975A
:100B5000DF91CF910895EF92FF920F931F93CF9360
:100B6000DF93EC0180918303882309F4A8C08C856E
:100B70009D85AE85BF850196A11DB11D8C879D8782
:100B8000AE87BF87488159816A817B818417950729
:100B9000A607B70709F093C088899989AA89BB89F4
:100BA0000196A11DB11D4C815D816E817F81481729
:100BB00059076A077B0718F480E090E0DC01888B16
:100BC000998BAA8BBB8B1C861D861E861F860E8961
:100BD0001F890115110509F472C0F801428553857A
:100BE00064857585481759076A077B0709F067C050
:100BF0009F010280F381E02D309749F042855385B3
:100C00006485758584179507A607B70789F3D8010A
:100C100014968D919C91009729F0DC011396FC931A
:100C2000EE931297309711F0958384838C899D8978
:100C30000817190711F4FD8BEC8B309709F446C0A7
:100C4000FF8BEE8BF901138212827801D801129684
:100C50000D911C911397ED91FC910280F381E02D91
:100C6000C7010995F70186819781A085B185009715
:100C7000A105B10581F14285538564857585840F91
:100C8000951FA61FB71F4C815D816E817F8148171C
:100C900059076A077B0740F4409550956095709519
:100CA000840F951FA61FB71FF70182879387A4871C
:100CB000B587C7010E94E9040115110531F6DF91DE
:100CC000CF911F910F91FF90EF9008958C899D898E
:100CD0009F8B8E8BB7CF1686EFCFFC0182810C9451
:100CE000C703EF92FF920F931F93CF93DF937C0183
:100CF0008B01FB01C285D385CB010A960E947A073E
:100D00009C018DE021153105D9F0F8019585D701B9
:100D1000822F232F980F392F381B1316C4F0F80198
:100D200085859881981B98839981890F89839485FB
:100D3000891708F019828A81882311F01A828CE0C1
:100D4000DF91CF911F910F91FF90EF900895E82FC1
:100D5000F22F81918D938E2F2F2FDDCF382F292FBA
:100D6000CA01009749F0DA01ED91FC91309721F02A
:100D7000AB01632F722F099481E0089581E00895FB
:100D8000FF920F931F93CF93DF93062FF72EDC0173
:100D90001296CD91DC91209711F410E018C0EC81EF
:100DA000FD81602F7F2DCE010995182F81110DC077
:100DB00088819981009721F40A80DB81C02DEBCFD7
:100DC000DC01ED91FC910995F7CF8E30A9F380E01D
:100DD0000E943A07812FDF91CF911F910F91FF90D1
:100DE0000895CF92DF92EF92FF920F931F93CF93CC
:100DF000DF93EC018B01EA84FB84C888D98848859D
:100E00005985C6010E94AE06882391F1CE010A964B
:100E10000E9440079C01892B31F18D85082E000C22
:100E2000990BF801B601181619067CF0F7018081BC
:100E30009D85890F808380E0DF91CF911F910F9175
:100E4000FF90EF90DF90CF9008954191DB014D939B
:100E5000BD01AF0141505109DA014C91D9014D93C7
:100E60009D010197E0CF81E0D70112968C93E3CFEB
:100E70008EE0E2CF8091850181110C942E040895BB
:100E8000CF92DF92EF92FF92CF93DF93FC01C0816C
:100E9000D1818881682F70E04281A42FB0E09D014C
:100EA000261B370B8381082E000C990B2817390756
:100EB000F4F0898124813581860F972F911D50E0B0
:100EC00070E060E06C01092E000CEE08FF08C4160B
:100ED000D506E606F70610F08A1B9B0B820F931FC0
:100EE000DF91CF91FF90EF90DF90CF90089590E049
:100EF00080E0F6CFFC01A081B1818C91882341F084
:100F000011968C9124813581820F932F911D089524
:100F100090E080E008950E94A60780916B010895FB
:100F200080936B010E944D040E94E5040C944804D8
:100F30000C948A0ECF93C82F0E94F102811102C037
:100F40000E94D30E8C2FCF910C949100209190038E
:100F50002130D1F0409188035091890360918A0338
:100F600070918B0380918C0390918D03A0918E03DF
:100F7000B0918F03842B952BA62BB72B21E0892BC7
:100F80008A2B8B2B09F420E0822F08951092900376
:100F900010928C0310928D0310928E0310928F0387
:100FA000109288031092890310928A0310928B0387
:100FB0008091840390918503A0918603B09187036B
:100FC0008093910390939203A0939303B09394031F
:100FD00008950E94D60E8091910390919203A09162
:100FE0009303B09194030196A11DB11D80939103C9
:100FF00090939203A0939303B093940380918C03F6
:1010000090918D03A0918E03B0918F030196A11D45
:10101000B11D80938C0390938D03A0938E03B093A6
:101020008F03089580918C0390918D03A0918E037E
:10103000B0918F030097A105B10569F1409191032B
:101040005091920360919303709194034150510920
:101050006109710940939103509392036093930344
:10106000709394030197A109B10980938C03909325
:101070008D03A0938E03B0938F0380919103909181
:101080009203A0919303B0919403892B8A2B8B2B0D
:1010900011F40C94D40E089580918C0390918D03DB
:1010A000A0918E03B0918F034091880350918903E2
:1010B00060918A0370918B03842B952BA62BB72B01
:1010C000892B8A2B8B2B29F40E94D60E81E08093EA
:1010D0009003089580919003882321F0109290034B
:1010E0000C94D40E08950E94DA0E80919103909191
:1010F0009203A0919303B09194030196A11DB11D99
:101100008093910390939203A0939303B0939403DD
:101110008091880390918903A0918A03B0918B03F9
:101120000196A11DB11D8093880390938903A0931C
:101130008A03B0938B03089580918803909189036B
:10114000A0918A03B0918B030097A105B10569F1C5
:101150004091910350919203609193037091940395
:1011600041505109610971094093910350939203D1
:1011700060939303709394030197A109B10980933D
:10118000880390938903A0938A03B0938B03809183
:10119000910390919203A0919303B0919403892BB2
:1011A0008A2B8B2B11F40C94D80E08950E94A6075D
:1011B000811183E10895CF93C82F0E94A6078C2F39
:1011C0000E94C703C82F8091850181110E942E04BF
:1011D0008C2FCF910895CF930E94A607C82F81111D
:1011E000C3E1E0917801F09179018281815082839D
:1011F0000E94B70381E0809384010E94F8038C2F42
:10120000CF910895CF93C82F0E94A607E09178014F
:10121000F09179018281815082838C2F0E94C703D3
:10122000C82F81110AC00E94B70381E08093840116
:101230000E94F8038C2FCF910895E0917801F091EE
:10124000790182818F5F8283F5CFCF930E94A607B9
:10125000C82F8111C3E180917C010E943C030E9450
:101260002E0480917C0190917D01A0917E01B0912E
:101270007F014091800150918101609182017091C4
:10128000830184179507A607B70711F40E940E0380
:101290008C2FCF910895CF93DF93EC010E94A60786
:1012A000811183E140917C0150917D0160917E012B
:1012B00070917F01433051056105710524F4488325
:1012C000DF91CF9108959091E8019883F9CF0F9322
:1012D0001F93CF93C82F8B010E94A607811183E132
:1012E000EC2FEE0FFF0BEF51FD4F0190F081E02D41
:1012F00094819370F8019083CF911F910F9108957D
:10130000E82FEE0FFF0BEF51FD4FA081B181ED9162
:10131000FC911197309789F01D921C928091E80101
:10132000DF010380F481E02D12968C9312971496BE
:101330001C921E921397309799F70895CF93C82F58
:101340000E94A607811183E1EC2FF0E0EE0FFF1F52
:10135000E75DFC4F0190F081E02D90917C0192833C
:10136000A0917801B09179012D913C91119734832E
:1013700023831196FC93EE9313969C91139791837C
:1013800020819695921768F430E0F901E356FC4FFE
:10139000908191509083220F331F9170922B13965E
:1013A0009C93CF910895CF93DF93C82F0E94A607F7
:1013B000D82F8111D3E1EC2FF0E0EE0FFF1FE75D96
:1013C000FC4F0190F081E02DA0917801B09179015E
:1013D000818113968C931397838194818D939C9331
:1013E000148213828091E80182830E942E048D2F43
:1013F000DF91CF910895DC01ED91FC91848195817D
:10140000DC01ED91FC9109941F93CF93DF93182F8A
:10141000EB010E94A607811183E1E12FF0E0EE0FBE
:10142000FF1FE054FD4F0190F081E02D0190F0810D
:10143000E02D0190F081E02D408151816281738126
:101440004C835D836E837F83448155816681778180
:10145000488359836A837B83408551856285738580
:10146000488759876A877B87DF91CF911F910895BD
:101470008F929F92AF92BF92CF92DF92EF92FF92A4
:101480000F931F93CF93C82F8B010E94A607811142
:1014900083E1EC2FF0E0EE0FFF1FE054FD4F0190D1
:1014A000F081E02D9685913081F5428553856485E4
:1014B00075850190F081E02D0190F081E02DC088CC
:1014C000D188E288F3884C155D056E057F0540F4F0
:1014D00084809580A680B780480D591D6A1D7B1DAC
:1014E0004C195D096E097F09F801408351836283BD
:1014F0007383CF911F910F91FF90EF90DF90CF906A
:10150000BF90AF909F908F90089585E0F2CFAF92FB
:10151000BF92CF92DF92EF92FF920F931F93CF93E0
:10152000DF93A82E6A017B01B22ED32F0E94A6075B
:10153000C82F8111C3E1EA2DF0E0EE0FFF1FE05448
:10154000FD4F0190F081E02D868581113CC0A08186
:10155000B1810D90BC91A02D50964D915D916D91F2
:101560007C915397C40ED51EE61EF71E14968D91DE
:101570009D910D90BC91A02D8C159D05AE05BF05CC
:1015800048F4C81AD90AEA0AFB0A81E0C81AD10845
:10159000E108F108C286D386E486F58606831783C0
:1015A000B086D18781E08687CF010E94E9048C2F25
:1015B000DF91CF911F910F91FF90EF90DF90CF902F
:1015C000BF90AF900895C7E0F2CFAF92BF92CF9295
:1015D000DF92EF92FF920F931F93CF93DF93C82F69
:1015E0005A016B0179010E94A607D82F8111D3E11E
:1015F000EC2FF0E0EE0FFF1FE054FD4F0190F08163
:10160000E02D8685811119C0A286B386C486D58651
:1016100006831783E086F18681E08687CF010E94EA
:10162000E9048D2FDF91CF911F910F91FF90EF90E3
:10163000DF90CF90BF90AF900895D7E0F2CF0F9397
:101640001F93CF93DF93C82F0E94A607D82F811135
:10165000D3E1EC2FF0E0EE0FFF1FE054FD4F0081CF
:101660001181F8018685813059F4C8010E946D0509
:10167000F80116868D2FDF91CF911F910F9108955C
:10168000D5E0F8CFCF93DF93FC01EE0FFF1FE856B4
:10169000FD4F0190F081E02D8585882371F0C28592
:1016A000D385CF010A960E947A07892B41F08A815F
:1016B00081118CE0DF91CF9108958AE0FBCF8DE01E
:1016C000F9CF880F991FFC01E457FD4F808191816C
:1016D000DC01ED91FC9109949B01FC01EE0FFF1FD1
:1016E000E856FD4F60817181DB011696ED91FC910A
:1016F000C9010994FC01EE0FFF1FE457FD4F8081E3
:101700009181DC01ED91FC9170E060E0099580E051
:10171000089561E08DE00E94490D60E08EE00E9436
:10172000490D62E08CE00E94490D26E040E855E258
:1017300060E070E088EB93E00C94B411CF93DF93FA
:101740006BE973E080912D0390912E030E94F100CC
:10175000811110C069EE71E088EB93E00E94840F64
:1017600060919B0370919C034AE050E088EB93E00A
:101770000E945510C0919B03D0919C03C230D105AB
:1017800089F1C330D10581F060E0C130D10569F441
:1017900080917201909173018530910554F4019606
:1017A000909373018093720161E08DE00E94850D3A
:1017B0000FC060E08DE00E94850D809172019091D4
:1017C00073018830910544F0D0937301C093720186
:1017D000DF91CF910C94B90001969093730180939F
:1017E0007201F6CF8091990390919A0361E001977D
:1017F00009F060E08DE00E94850D81E090E020918D
:10180000990330919A03232B11F090E080E090939C
:101810009A0380939903DCCFCF93DF938EE00E94ED
:101820006E0EEC018CE00E94B30D892BA1F5809126
:101830009703909198030196909398038093970350
:101840000A9774F580917001909171018C179D0732
:10185000F1F0D0937101C093700160E771E0809165
:101860002B0390912C030E94ED0081111BC062E0BC
:1018700072E088EB93E00E94840F60917001709198
:1018800071014AE050E088EB93E00E945510DF912F
:10189000CF910C94B9001092980310929703D2CF75
:1018A000D05FD0CF67E172E088EB93E00E94910FA8
:1018B000EECFCF93DF9300D0CDB7DEB7BE016F5F21
:1018C0007F4F80912F03909130030E94F10081118E
:1018D00080C06CE272E088EB93E00E94840F698123
:1018E0007A814AE050E088EB93E00E94551061E471
:1018F00072E088EB93E00E94840F60916E0170911A
:101900006F014AE050E088EB93E00E945510898116
:101910009A81811520E19207C4F08F5F9F409A83DE
:10192000898390936F0180936E0168E472E088EB85
:1019300093E00E94840F60916E0170916F014AE004
:1019400050E088EB93E00E94551080916C019091DB
:101950006D01019609F510926D0110926C0167E519
:1019600072E088EB93E00E94840F60916C017091AB
:101970006D014AE050E088EB93E00E9455108091A1
:101980006E0190916F010196C9F483E090E090930D
:101990009603809395031DC089819A8120916E01E1
:1019A00030916F01821B930B97FF03C09195819536
:1019B000910990936D0180936C01D1CF80916C015E
:1019C00090916D01843691052CF51092960310923A
:1019D000950365E973E080912D0390912E030E9499
:1019E000ED00811120C06BE572E088EB93E00E946E
:1019F000840F60919503709196034AE050E088EB64
:101A000093E00E9455100E94B9000F900F90DF9153
:101A1000CF910895883C91051CF481E090E0B7CF08
:101A200082E090E0B4CF64E772E088EB93E00E943C
:101A3000910FE9CF86EC91E00C943A01089584303F
:101A400099F038F48230C1F0833041F0813081F078
:101A500008958730A1F08830C1F00895809180000A
:101A60008F77809380000895809180008F7DF9CFDB
:101A700084B58F7784BD089584B58F7DFBCF809129
:101A8000B0008F778093B00008958091B0008F7D73
:101A9000F9CFCF93DF9390E0FC01E458FF4F2491FE
:101AA00080579F4FFC0184918823C9F090E0880FF4
:101AB000991FFC01E854FF4FA591B491FC01E25538
:101AC000FF4FC591D49161110DC09FB7F8948C91CF
:101AD000209582238C938881282328839FBFDF91C0
:101AE000CF910895623051F49FB7F8943C91822FC2
:101AF000809583238C93E8812E2BEFCF8FB7F894BA
:101B0000EC912E2B2C938FBFEACF1F93CF93DF93B3
:101B1000162F282F30E0F901E859FF4F8491F90181
:101B2000E458FF4FD491F901E057FF4FC491CC2303
:101B3000A1F081110E941F0DEC2FF0E0EE0FFF1FAE
:101B4000E255FF4FA591B4918FB7F894EC91111124
:101B500008C0D095DE23DC938FBFDF91CF911F911A
:101B60000895DE2BF8CFCF93DF93282F30E0F901D3
:101B7000E859FF4F8491F901E458FF4FD491F901DE
:101B8000E057FF4FC491CC23A1F081110E941F0D9B
:101B9000EC2FF0E0EE0FFF1FEC55FF4FA591B49135
:101BA000EC91ED2381E090E009F480E0DF91CF91AA
:101BB000089580E090E0FACF1F920F920FB60F9237
:101BC00011242F933F934F935F936F937F938F9342
:101BD0009F93AF93BF93EF93FF938091AF03909147
:101BE000B003A091B103B091B2033091AE0323E0F2
:101BF000230F2D3798F50196A11DB11D2093AE033B
:101C00008093AF039093B003A093B103B093B2035A
:101C10008091B3039091B403A091B503B091B60342
:101C20000196A11DB11D8093B3039093B403A093BB
:101C3000B503B093B6030E941A0DFF91EF91BF91C7
:101C4000AF919F918F917F916F915F914F913F9154
:101C50002F910F900FBE0F901F90189526E8230F1D
:101C60000296A11DB11DCACF84B5826084BD84B522
:101C7000816084BD85B5826085BD85B5816085BD87
:101C8000EEE6F0E0808181608083E1E8F0E01082A0
:101C9000808182608083808181608083E0E8F0E0E1
:101CA000808181608083E1EBF0E0808184608083CB
:101CB000E0EBF0E0808181608083EAE7F0E0808102
:101CC0008460808380818260808380818160808362
:101CD0008081806880831092C10008958E3008F062
:101CE0008E502091E30190E4299F90011124877088
:101CF000822B80937C0080917A00806480937A00AC
:101D000080917A0086FDFCCF8091780090917900D7
:101D10000895FFCFFFCFCF93DF93E82FEE0FFF0B98
:101D2000E751FD4FA081B1811496ED91FC9115977B
:101D3000319712968D919C911397E80FF91F1D967C
:101D40008C911D97EF012197823051F581EB90E046
:101D50008083988316969C91169717968C91179767
:101D6000EF0122979883219788832197CF010A97C3
:101D7000188221978C179D07D9F720E8EC0128835A
:101D8000EF012B97779718822197EC17FD07D9F76A
:101D90000D90BC91A02DED93FC93DF91CF91089510
:101DA0008DEC90E0D5CF089578940895F894089537
:101DB00078940895F894089508950E94340E0E942E
:101DC000DC0E0E941E0D0E94890B8091B7030E94B9
:101DD0009A0790E080E00895809137038093B703DD
:101DE000089508951F920F920FB60F9211242F930A
:101DF0003F934F935F936F937F938F939F93AF9393
:101E0000BF93EF93FF93E091E401F091E501099511
:101E1000FF91EF91BF91AF919F918F917F916F91C2
:101E20005F914F913F912F910F900FBE0F901F9098
:101E300018951F920F920FB60F9211242F933F9374
:101E40004F935F936F937F938F939F93AF93BF93C2
:101E5000EF93FF93E091E601F091E7010995FF917F
:101E6000EF91BF91AF919F918F917F916F915F9112
:101E70004F913F912F910F900FBE0F901F9018958B
:101E8000CF92DF92EF92FF920F931F93CF93DF9346
:101E90007C016A0110E000E00C151D0581F0EB01EA
:101EA000D701ED91FC910190F081E02D6991C7017E
:101EB0000995892B21F00F5F1F4FBE01EDCFC8019F
:101EC000DF91CF911F910F91FF90EF90DF90CF9016
:101ED0000895CF93DF93EC01DB01AB2B81F0FB0185
:101EE00001900020E9F73197AF01461B570BE881BD
:101EF000F9810280F381E02DDF91CF91099490E088
:101F000080E0DF91CF9108950C94690FDC01ED9191
:101F1000FC910190F081E02D099469E872E00C9445
:101F2000690F0F931F93CF93DF93D82FC92F0E9470
:101F3000690F8C018D2F9C2F0E948D0F800F911F98
:101F4000DF91CF911F910F9108956F927F928F92A1
:101F50009F92AF92BF92CF92DF92EF92FF920F9338
:101F60001F93CF93DF93CDB7DEB7A1970FB6F89449
:101F7000DEBF0FBECDBF3C01142F052F962E872E3E
:101F800019A2223008F42AE05E0181E2A80EB11CF9
:101F9000C22ED12CF12CE12C612F702F892D982D80
:101FA000A70196010E941912812F902FA92DB82DFB
:101FB000122F032F942E852E6A3014F5605DF501E3
:101FC00062935F018C159D05AE05BF0528F7BF0123
:101FD000C3010E94690FA1960FB6F894DEBF0FBE31
:101FE000CDBFDF91CF911F910F91FF90EF90DF90C8
:101FF000CF90BF90AF909F908F907F906F900895FB
:10200000695CDDCFCF92DF92EF92FF920F931F9327
:10201000CF93DF93EC016A017B01C901892B81F425
:10202000E881F9810190F081E02D642FCE01DF91EC
:10203000CF911F910F91FF90EF90DF90CF90099477
:102040002A303105F1F42AE0F7FE1BC06DE2CE0123
:102050000E94860F8C0144275527BA014C195D094F
:102060006E097F092AE0CE010E94A50F800F911F03
:10207000DF91CF911F910F91FF90EF90DF90CF9064
:102080000895B701A601CE01DF91CF911F910F9165
:10209000FF90EF90DF90CF900C94A50F9A01AB01C9
:1020A000770F660B770B0C9402100F931F93CF934F
:1020B000DF93D82FC92F0E944E108C018D2F9C2F9B
:1020C0000E948D0F800F911FDF91CF911F910F9173
:1020D00008952F932FB72F938F939F93EF93FF9391
:1020E000E091C803F091C9038081E091CE03F091A3
:1020F000CF0382FD19C090818091D1038F5F8F73D0
:102100002091D203821741F0E091D103F0E0E8542E
:10211000FC4F958F8093D103FF91EF919F918F9109
:102120002F912FBF2F9118958081F6CF1F920F927C
:102130000FB60F9211242F933F934F935F936F939A
:102140007F938F939F93AF93BF93EF93FF9388EB0E
:1021500093E00E942511FF91EF91BF91AF919F9164
:102160008F917F916F915F914F913F912F910F9040
:102170000FBE0F901F901895E8EBF3E013821282C8
:1021800088EE93E0A0E0B0E084839583A683B783D4
:1021900084E793E09183808385EC90E09587848742
:1021A00084EC90E09787868780EC90E0918B808B21
:1021B00081EC90E0938B828B82EC90E0958B848B0A
:1021C00086EC90E0978B868B118E128E138E148E78
:1021D0000895FC01818D228D90E0805C9F4F821BD1
:1021E00091098F7399270895FC01918D828D98171D
:1021F00031F0828DE80FF11D858D90E008958FEF0D
:102200009FEF0895FC01918D828D981761F0A28D4A
:10221000AE0FBF2FB11D5D968C91928D9F5F9F7306
:10222000928F90E008958FEF9FEF0895FC01538DFA
:10223000448D252F30E0842F90E0821B930B5417A0
:1022400010F0CF96089501970895FC01A48DA80F72
:10225000B92FB11DA35ABF4F2C91848D90E00196E8
:102260008F739927848FA689B7892C93A089B18908
:102270008C91837080648C93938D848D981306C0A9
:102280000288F389E02D80818F7D80830895CF932C
:10229000DF93EC01888D8823B9F0AA89BB89E8898E
:1022A000F9898C9185FD03C0808186FD0DC00FB634
:1022B00007FCF7CF8C9185FFF2CF808185FFEDCFB2
:1022C000CE010E942511E9CFDF91CF910895EF92C1
:1022D000FF920F931F93CF93DF93EC01F62E81E0D3
:1022E000888F9B8D8C8D98131AC0E889F98980811D
:1022F00085FF15C09FB7F894EE89FF896083E88950
:10230000F98980818370806480839FBF81E090E041
:10231000DF91CF911F910F91FF90EF9008950B8D5A
:1023200010E00F5F1F4F0F731127E02E8C8D8E1161
:102330000CC00FB607FCFACFE889F989808185FFC8
:10234000F5CFCE010E942511F1CFEB8DEC0FFD2FC3
:10235000F11DE35AFF4FF0829FB7F8940B8FEA8983
:10236000FB8980818062D0CFCF92DF92EF92FF9283
:102370001F93CF93DF93EC016A017B01122FE88951
:10238000F98982E08083C11481EED806E104F1046A
:10239000A1F060E079E08DE390E0A70196010E9452
:1023A0001912215031094109510956954795379520
:1023B0002795211580E1380798F0E889F98910827E
:1023C00060E874E88EE190E0A70196010E9419127E
:1023D000215031094109510956954795379527955F
:1023E000EC85FD853083EE85FF852083188EEC8992
:1023F000FD891083EA89FB89808180618083EA8975
:10240000FB89808188608083EA89FB89808180687C
:102410008083EA89FB8980818F7D8083DF91CF91E2
:102420001F91FF90EF90DF90CF900895F8940C9457
:102430004112A1E21A2EAA1BBB1BFD010DC0AA1F4F
:10244000BB1FEE1FFF1FA217B307E407F50720F01D
:10245000A21BB30BE40BF50B661F771F881F991F98
:102460001A9469F760957095809590959B01AC01E1
:10247000BD01CF010895EE0FFF1F0590F491E02DEF
:062480000994F894FFCF5F
:102486000000000000000000000000000000000046
:102496000000000000000000000000000000000036
:1024A6000000000000000000000000000000000026
:1024B6000000000000000000000000000000000016
:1024C6000000000000000000000000000000000006
:1024D60000000000000000000000000000000000F6
:1024E6000000000000000000040000FFFFFFFFFFE7
:1024F600FFFF010000001B030000A903FFFFFFFF11
:10250600FFFFFFFF0000BE06BE06C6020000000079
:102516007D0000007D00000002CF0200000000F4F4
:10252600010000F401000002D8020000000064006F
:102536000000640000000200000003040000000226
:1025460004000000010401000000FFFF000001007C
:102556000000000000000000000000000000040071
:10256600FF000001F10EF10EFF563A205265636539
:1025760069766564206D73672066726F6D204D3ACB
:102586002000433A2053656E74206D73672066728F
:102596006F6D20433A2000433A206572726F7220B5
:1025A60073656E64696E67206D7367004D3A2072BD
:1025B600656365697665642066726F6D20433A20AF
:1025C600004D3A20523A20004D3A2052206368616D
:1025D6006E6765643A2000583A20004D3A205365EC
:1025E6006E74206D6573736167652066726F6D5FCB
:1025F6004D3A20004D3A206572726F722073656EF7
:1026060064696E67206D7367000D0A00940290027C
:10261600C0069C02C006AE02AE029C02000000008C
:10262600F10671068601A3031E02F3047506000077
:102636000000F10671068801A6031E02D5041105E5
:10264600A80199018A01C601FB09CC026D0600C6E4
:1026560001FB09D5026D0601C601FB09DE026D0606
:1026660002C101BC01B701A9030D03FF02F1021B60
:10267600031305F50580000C0C680102030100F345
:102686000555048000590C680101020100770673A4
:102696000580009E0B6801000101002105230550FD
:1026A60000890E000003000100DE010000010000A9
:1026B60000010101010101009C086A0873084C0829
:1026C600D204E907BF0412082509D3099807040AAA
:1026D600DB08380A0209870A4B09E50A90071F0B2F
:1026E6008B07610B420B6C0B9E097A0B6709EB0893
:1026F600000000006711400F16114711E910021182
:02270600F410CD
:00000001FF
